{
  "contractName": "Agrifood",
  "abi": [
    {
      "constant": true,
      "inputs": [
        {
          "name": "",
          "type": "uint256"
        }
      ],
      "name": "_assets",
      "outputs": [
        {
          "name": "_id",
          "type": "string"
        },
        {
          "name": "_name",
          "type": "string"
        },
        {
          "name": "_type",
          "type": "string"
        },
        {
          "name": "_description",
          "type": "string"
        },
        {
          "name": "_owner",
          "type": "string"
        },
        {
          "name": "_hasParent",
          "type": "string"
        }
      ],
      "payable": false,
      "stateMutability": "view",
      "type": "function"
    },
    {
      "constant": true,
      "inputs": [],
      "name": "_totalAssets",
      "outputs": [
        {
          "name": "",
          "type": "uint256"
        }
      ],
      "payable": false,
      "stateMutability": "view",
      "type": "function"
    },
    {
      "inputs": [],
      "payable": false,
      "stateMutability": "nonpayable",
      "type": "constructor"
    },
    {
      "anonymous": false,
      "inputs": [
        {
          "indexed": false,
          "name": "_id",
          "type": "string"
        },
        {
          "indexed": false,
          "name": "_name",
          "type": "string"
        },
        {
          "indexed": false,
          "name": "_type",
          "type": "string"
        },
        {
          "indexed": false,
          "name": "_desc",
          "type": "string"
        },
        {
          "indexed": false,
          "name": "_owner",
          "type": "string"
        }
      ],
      "name": "AssetEvent",
      "type": "event"
    },
    {
      "constant": false,
      "inputs": [
        {
          "name": "asset_id",
          "type": "string"
        },
        {
          "name": "asset_name",
          "type": "string"
        },
        {
          "name": "asset_type",
          "type": "string"
        },
        {
          "name": "asset_desc",
          "type": "string"
        },
        {
          "name": "asset_owner",
          "type": "string"
        },
        {
          "name": "asset_parent",
          "type": "string"
        }
      ],
      "name": "addAsset",
      "outputs": [
        {
          "name": "_count",
          "type": "uint256"
        }
      ],
      "payable": false,
      "stateMutability": "nonpayable",
      "type": "function"
    }
  ],
  "bytecode": "0x608060405234801561001057600080fd5b506000600181905550610d98806100286000396000f300608060405260043610610057576000357c0100000000000000000000000000000000000000000000000000000000900463ffffffff168063260b79ac1461005c5780633c5b4e1a1461031e578063ce04bebb146104f9575b600080fd5b34801561006857600080fd5b5061008760048036038101908080359060200190929190505050610524565b6040518080602001806020018060200180602001806020018060200187810387528d818151815260200191508051906020019080838360005b838110156100db5780820151818401526020810190506100c0565b50505050905090810190601f1680156101085780820380516001836020036101000a031916815260200191505b5087810386528c818151815260200191508051906020019080838360005b83811015610141578082015181840152602081019050610126565b50505050905090810190601f16801561016e5780820380516001836020036101000a031916815260200191505b5087810385528b818151815260200191508051906020019080838360005b838110156101a757808201518184015260208101905061018c565b50505050905090810190601f1680156101d45780820380516001836020036101000a031916815260200191505b5087810384528a818151815260200191508051906020019080838360005b8381101561020d5780820151818401526020810190506101f2565b50505050905090810190601f16801561023a5780820380516001836020036101000a031916815260200191505b50878103835289818151815260200191508051906020019080838360005b83811015610273578082015181840152602081019050610258565b50505050905090810190601f1680156102a05780820380516001836020036101000a031916815260200191505b50878103825288818151815260200191508051906020019080838360005b838110156102d95780820151818401526020810190506102be565b50505050905090810190601f1680156103065780820380516001836020036101000a031916815260200191505b509c5050505050505050505050505060405180910390f35b34801561032a57600080fd5b506104e3600480360381019080803590602001908201803590602001908080601f0160208091040260200160405190810160405280939291908181526020018383808284378201915050505050509192919290803590602001908201803590602001908080601f0160208091040260200160405190810160405280939291908181526020018383808284378201915050505050509192919290803590602001908201803590602001908080601f0160208091040260200160405190810160405280939291908181526020018383808284378201915050505050509192919290803590602001908201803590602001908080601f0160208091040260200160405190810160405280939291908181526020018383808284378201915050505050509192919290803590602001908201803590602001908080601f0160208091040260200160405190810160405280939291908181526020018383808284378201915050505050509192919290803590602001908201803590602001908080601f01602080910402602001604051908101604052809392919081815260200183838082843782019150505050505091929192905050506108ff565b6040518082815260200191505060405180910390f35b34801561050557600080fd5b5061050e610c8a565b6040518082815260200191505060405180910390f35b60008181548110151561053357fe5b9060005260206000209060060201600091509050806000018054600181600116156101000203166002900480601f0160208091040260200160405190810160405280929190818152602001828054600181600116156101000203166002900480156105df5780601f106105b4576101008083540402835291602001916105df565b820191906000526020600020905b8154815290600101906020018083116105c257829003601f168201915b505050505090806001018054600181600116156101000203166002900480601f01602080910402602001604051908101604052809291908181526020018280546001816001161561010002031660029004801561067d5780601f106106525761010080835404028352916020019161067d565b820191906000526020600020905b81548152906001019060200180831161066057829003601f168201915b505050505090806002018054600181600116156101000203166002900480601f01602080910402602001604051908101604052809291908181526020018280546001816001161561010002031660029004801561071b5780601f106106f05761010080835404028352916020019161071b565b820191906000526020600020905b8154815290600101906020018083116106fe57829003601f168201915b505050505090806003018054600181600116156101000203166002900480601f0160208091040260200160405190810160405280929190818152602001828054600181600116156101000203166002900480156107b95780601f1061078e576101008083540402835291602001916107b9565b820191906000526020600020905b81548152906001019060200180831161079c57829003601f168201915b505050505090806004018054600181600116156101000203166002900480601f0160208091040260200160405190810160405280929190818152602001828054600181600116156101000203166002900480156108575780601f1061082c57610100808354040283529160200191610857565b820191906000526020600020905b81548152906001019060200180831161083a57829003601f168201915b505050505090806005018054600181600116156101000203166002900480601f0160208091040260200160405190810160405280929190818152602001828054600181600116156101000203166002900480156108f55780601f106108ca576101008083540402835291602001916108f5565b820191906000526020600020905b8154815290600101906020018083116108d857829003601f168201915b5050505050905086565b6000610909610c90565b60c060405190810160405280898152602001888152602001878152602001868152602001858152602001848152509050600081908060018154018082558091505090600182039060005260206000209060060201600090919290919091506000820151816000019080519060200190610983929190610cc7565b5060208201518160010190805190602001906109a0929190610cc7565b5060408201518160020190805190602001906109bd929190610cc7565b5060608201518160030190805190602001906109da929190610cc7565b5060808201518160040190805190602001906109f7929190610cc7565b5060a0820151816005019080519060200190610a14929190610cc7565b505050506001600081548092919060010191905055507f390c4f1976c103ffd82c1c7aac8239b43766010a6a6a852542f34241b930d7e5888888888860405180806020018060200180602001806020018060200186810386528b818151815260200191508051906020019080838360005b83811015610aa0578082015181840152602081019050610a85565b50505050905090810190601f168015610acd5780820380516001836020036101000a031916815260200191505b5086810385528a818151815260200191508051906020019080838360005b83811015610b06578082015181840152602081019050610aeb565b50505050905090810190601f168015610b335780820380516001836020036101000a031916815260200191505b50868103845289818151815260200191508051906020019080838360005b83811015610b6c578082015181840152602081019050610b51565b50505050905090810190601f168015610b995780820380516001836020036101000a031916815260200191505b50868103835288818151815260200191508051906020019080838360005b83811015610bd2578082015181840152602081019050610bb7565b50505050905090810190601f168015610bff5780820380516001836020036101000a031916815260200191505b50868103825287818151815260200191508051906020019080838360005b83811015610c38578082015181840152602081019050610c1d565b50505050905090810190601f168015610c655780820380516001836020036101000a031916815260200191505b509a505050505050505050505060405180910390a16001549150509695505050505050565b60015481565b60c0604051908101604052806060815260200160608152602001606081526020016060815260200160608152602001606081525090565b828054600181600116156101000203166002900490600052602060002090601f016020900481019282601f10610d0857805160ff1916838001178555610d36565b82800160010185558215610d36579182015b82811115610d35578251825591602001919060010190610d1a565b5b509050610d439190610d47565b5090565b610d6991905b80821115610d65576000816000905550600101610d4d565b5090565b905600a165627a7a72305820949e7c6ac6a583eb7e061b0378cf4db3904ff40337897eb835b79c884d884b280029",
  "source": "// SPDX-License-Identifier: MIT\npragma solidity >=0.4.21 <0.7.0;\n\ncontract Agrifood {\n    struct _asset {\n        string _id;\n        string _name;\n        string _type;\n        string _description;\n        string _owner;\n        string _hasParent;\n    }\n\n    _asset[] public _assets;\n    uint256 public _totalAssets;\n\n    constructor() public {\n        _totalAssets = 0;\n    }\n\n    event AssetEvent(\n        string _id,\n        string _name,\n        string _type,\n        string _desc,\n        string _owner\n    );\n\n    function addAsset(\n        string memory asset_id,\n        string memory asset_name,\n        string memory asset_type,\n        string memory asset_desc,\n        string memory asset_owner,\n        string memory asset_parent\n    ) public returns (uint256 _count) {\n        _asset memory _newAsset = _asset(\n            asset_id,\n            asset_name,\n            asset_type,\n            asset_desc,\n            asset_owner,\n            asset_parent\n        );\n        _assets.push(_newAsset);\n        _totalAssets++;\n        emit AssetEvent(\n            asset_id,\n            asset_name,\n            asset_type,\n            asset_desc,\n            asset_owner\n        );\n        return _totalAssets;\n    }\n}\n",
  "sourcePath": "/Users/harpreetsingh/Desktop/workplace/blockchain-webinar/ethereum/AgrifoodContractService/contracts/Agrifood.sol",
  "compiler": {
    "name": "solc",
    "version": "0.4.25+commit.59dbf8f1.Emscripten.clang"
  },
  "schemaVersion": "2.0.2",
  "updatedAt": "2020-06-29T22:38:27.493Z"
}